{
  "contractName": "UserManagement",
  "abi": [
    {
      "inputs": [],
      "stateMutability": "nonpayable",
      "type": "constructor"
    },
    {
      "inputs": [],
      "name": "bookingFee",
      "outputs": [
        {
          "internalType": "uint256",
          "name": "",
          "type": "uint256"
        }
      ],
      "stateMutability": "view",
      "type": "function",
      "constant": true
    },
    {
      "inputs": [],
      "name": "owner",
      "outputs": [
        {
          "internalType": "address",
          "name": "",
          "type": "address"
        }
      ],
      "stateMutability": "view",
      "type": "function",
      "constant": true
    },
    {
      "inputs": [
        {
          "internalType": "address",
          "name": "",
          "type": "address"
        }
      ],
      "name": "users",
      "outputs": [
        {
          "internalType": "uint256",
          "name": "id",
          "type": "uint256"
        },
        {
          "internalType": "string",
          "name": "name",
          "type": "string"
        },
        {
          "internalType": "enum UserManagement.Role",
          "name": "role",
          "type": "uint8"
        },
        {
          "internalType": "address",
          "name": "wallet_addr",
          "type": "address"
        },
        {
          "internalType": "bool",
          "name": "isRegistered",
          "type": "bool"
        },
        {
          "internalType": "uint8",
          "name": "age",
          "type": "uint8"
        },
        {
          "internalType": "string",
          "name": "gender",
          "type": "string"
        },
        {
          "internalType": "string",
          "name": "district",
          "type": "string"
        },
        {
          "internalType": "enum UserManagement.TrainingType",
          "name": "training_interest",
          "type": "uint8"
        },
        {
          "internalType": "bool",
          "name": "has_completed_training",
          "type": "bool"
        }
      ],
      "stateMutability": "view",
      "type": "function",
      "constant": true
    },
    {
      "inputs": [
        {
          "internalType": "string",
          "name": "userName",
          "type": "string"
        }
      ],
      "name": "registerAsAdmin",
      "outputs": [],
      "stateMutability": "nonpayable",
      "type": "function"
    },
    {
      "inputs": [
        {
          "internalType": "string",
          "name": "userName",
          "type": "string"
        }
      ],
      "name": "registerAsTrainer",
      "outputs": [],
      "stateMutability": "nonpayable",
      "type": "function"
    },
    {
      "inputs": [
        {
          "internalType": "string",
          "name": "userName",
          "type": "string"
        },
        {
          "internalType": "uint8",
          "name": "userAge",
          "type": "uint8"
        },
        {
          "internalType": "string",
          "name": "userGender",
          "type": "string"
        },
        {
          "internalType": "string",
          "name": "userDistrict",
          "type": "string"
        },
        {
          "internalType": "enum UserManagement.TrainingType",
          "name": "interested_type",
          "type": "uint8"
        }
      ],
      "name": "registerAsParticipant",
      "outputs": [],
      "stateMutability": "nonpayable",
      "type": "function"
    },
    {
      "inputs": [
        {
          "internalType": "address",
          "name": "participantAddr",
          "type": "address"
        },
        {
          "internalType": "uint8",
          "name": "new_Inter",
          "type": "uint8"
        }
      ],
      "name": "updateInterest",
      "outputs": [],
      "stateMutability": "nonpayable",
      "type": "function"
    },
    {
      "inputs": [
        {
          "internalType": "address",
          "name": "participantAddr",
          "type": "address"
        },
        {
          "internalType": "bool",
          "name": "status",
          "type": "bool"
        }
      ],
      "name": "updateStatus",
      "outputs": [],
      "stateMutability": "nonpayable",
      "type": "function"
    },
    {
      "inputs": [
        {
          "internalType": "address",
          "name": "trainer",
          "type": "address"
        },
        {
          "internalType": "uint256",
          "name": "startTime",
          "type": "uint256"
        }
      ],
      "name": "bookTrainingSlot",
      "outputs": [],
      "stateMutability": "payable",
      "type": "function",
      "payable": true
    },
    {
      "inputs": [],
      "name": "viewAllTrainingSchedules",
      "outputs": [
        {
          "components": [
            {
              "internalType": "address",
              "name": "participant",
              "type": "address"
            },
            {
              "internalType": "address",
              "name": "trainer",
              "type": "address"
            },
            {
              "internalType": "uint256",
              "name": "startTime",
              "type": "uint256"
            },
            {
              "internalType": "uint256",
              "name": "endTime",
              "type": "uint256"
            },
            {
              "internalType": "uint256",
              "name": "paidFee",
              "type": "uint256"
            }
          ],
          "internalType": "struct UserManagement.Booking[][]",
          "name": "allBookings",
          "type": "tuple[][]"
        }
      ],
      "stateMutability": "view",
      "type": "function",
      "constant": true
    },
    {
      "inputs": [],
      "name": "getParticipants",
      "outputs": [
        {
          "components": [
            {
              "internalType": "uint256",
              "name": "id",
              "type": "uint256"
            },
            {
              "internalType": "string",
              "name": "name",
              "type": "string"
            },
            {
              "internalType": "enum UserManagement.Role",
              "name": "role",
              "type": "uint8"
            },
            {
              "internalType": "address",
              "name": "wallet_addr",
              "type": "address"
            },
            {
              "internalType": "bool",
              "name": "isRegistered",
              "type": "bool"
            },
            {
              "internalType": "uint8",
              "name": "age",
              "type": "uint8"
            },
            {
              "internalType": "string",
              "name": "gender",
              "type": "string"
            },
            {
              "internalType": "string",
              "name": "district",
              "type": "string"
            },
            {
              "internalType": "enum UserManagement.TrainingType",
              "name": "training_interest",
              "type": "uint8"
            },
            {
              "internalType": "bool",
              "name": "has_completed_training",
              "type": "bool"
            }
          ],
          "internalType": "struct UserManagement.User[]",
          "name": "",
          "type": "tuple[]"
        }
      ],
      "stateMutability": "view",
      "type": "function",
      "constant": true
    },
    {
      "inputs": [],
      "name": "getTrainers",
      "outputs": [
        {
          "components": [
            {
              "internalType": "uint256",
              "name": "id",
              "type": "uint256"
            },
            {
              "internalType": "string",
              "name": "name",
              "type": "string"
            },
            {
              "internalType": "enum UserManagement.Role",
              "name": "role",
              "type": "uint8"
            },
            {
              "internalType": "address",
              "name": "wallet_addr",
              "type": "address"
            },
            {
              "internalType": "bool",
              "name": "isRegistered",
              "type": "bool"
            },
            {
              "internalType": "uint8",
              "name": "age",
              "type": "uint8"
            },
            {
              "internalType": "string",
              "name": "gender",
              "type": "string"
            },
            {
              "internalType": "string",
              "name": "district",
              "type": "string"
            },
            {
              "internalType": "enum UserManagement.TrainingType",
              "name": "training_interest",
              "type": "uint8"
            },
            {
              "internalType": "bool",
              "name": "has_completed_training",
              "type": "bool"
            }
          ],
          "internalType": "struct UserManagement.User[]",
          "name": "",
          "type": "tuple[]"
        }
      ],
      "stateMutability": "view",
      "type": "function",
      "constant": true
    },
    {
      "inputs": [],
      "name": "getAdmins",
      "outputs": [
        {
          "components": [
            {
              "internalType": "uint256",
              "name": "id",
              "type": "uint256"
            },
            {
              "internalType": "string",
              "name": "name",
              "type": "string"
            },
            {
              "internalType": "enum UserManagement.Role",
              "name": "role",
              "type": "uint8"
            },
            {
              "internalType": "address",
              "name": "wallet_addr",
              "type": "address"
            },
            {
              "internalType": "bool",
              "name": "isRegistered",
              "type": "bool"
            },
            {
              "internalType": "uint8",
              "name": "age",
              "type": "uint8"
            },
            {
              "internalType": "string",
              "name": "gender",
              "type": "string"
            },
            {
              "internalType": "string",
              "name": "district",
              "type": "string"
            },
            {
              "internalType": "enum UserManagement.TrainingType",
              "name": "training_interest",
              "type": "uint8"
            },
            {
              "internalType": "bool",
              "name": "has_completed_training",
              "type": "bool"
            }
          ],
          "internalType": "struct UserManagement.User[]",
          "name": "",
          "type": "tuple[]"
        }
      ],
      "stateMutability": "view",
      "type": "function",
      "constant": true
    },
    {
      "inputs": [
        {
          "internalType": "address",
          "name": "trainer",
          "type": "address"
        }
      ],
      "name": "getBookingsForTrainer",
      "outputs": [
        {
          "components": [
            {
              "internalType": "address",
              "name": "participant",
              "type": "address"
            },
            {
              "internalType": "address",
              "name": "trainer",
              "type": "address"
            },
            {
              "internalType": "uint256",
              "name": "startTime",
              "type": "uint256"
            },
            {
              "internalType": "uint256",
              "name": "endTime",
              "type": "uint256"
            },
            {
              "internalType": "uint256",
              "name": "paidFee",
              "type": "uint256"
            }
          ],
          "internalType": "struct UserManagement.Booking[]",
          "name": "",
          "type": "tuple[]"
        }
      ],
      "stateMutability": "view",
      "type": "function",
      "constant": true
    }
  ],
  "bytecode": "0x60806040525f600155662386f26fc100006002553480156200001f575f80fd5b50335f806101000a81548173ffffffffffffffffffffffffffffffffffffffff021916908373ffffffffffffffffffffffffffffffffffffffff1602179055506040518061014001604052805f81526020016040518060400160405280600781526020017f41646d696e20300000000000000000000000000000000000000000000000000081525081526020015f6002811115620000c257620000c162000502565b5b81526020013373ffffffffffffffffffffffffffffffffffffffff168152602001600115158152602001601460ff16815260200160405180602001604052805f815250815260200160405180602001604052805f81525081526020015f600281111562000134576200013362000502565b5b81526020015f151581525060035f3373ffffffffffffffffffffffffffffffffffffffff1673ffffffffffffffffffffffffffffffffffffffff1681526020019081526020015f205f820151815f015560208201518160010190816200019b919062000793565b506040820151816002015f6101000a81548160ff02191690836002811115620001c957620001c862000502565b5b021790555060608201518160020160016101000a81548173ffffffffffffffffffffffffffffffffffffffff021916908373ffffffffffffffffffffffffffffffffffffffff16021790555060808201518160020160156101000a81548160ff02191690831515021790555060a08201518160020160166101000a81548160ff021916908360ff16021790555060c08201518160030190816200026d919062000793565b5060e082015181600401908162000285919062000793565b50610100820151816005015f6101000a81548160ff02191690836002811115620002b457620002b362000502565b5b02179055506101208201518160050160016101000a81548160ff021916908315150217905550905050600560035f3373ffffffffffffffffffffffffffffffffffffffff1673ffffffffffffffffffffffffffffffffffffffff1681526020019081526020015f20908060018154018082558091505060019003905f5260205f2090600602015f909190919091505f820154815f0155600182018160010190816200036091906200088e565b50600282015f9054906101000a900460ff16816002015f6101000a81548160ff021916908360028111156200039a576200039962000502565b5b02179055506002820160019054906101000a900473ffffffffffffffffffffffffffffffffffffffff168160020160016101000a81548173ffffffffffffffffffffffffffffffffffffffff021916908373ffffffffffffffffffffffffffffffffffffffff1602179055506002820160159054906101000a900460ff168160020160156101000a81548160ff0219169083151502179055506002820160169054906101000a900460ff168160020160166101000a81548160ff021916908360ff160217905550600382018160030190816200047791906200088e565b50600482018160040190816200048e91906200088e565b50600582015f9054906101000a900460ff16816005015f6101000a81548160ff02191690836002811115620004c857620004c762000502565b5b02179055506005820160019054906101000a900460ff168160050160016101000a81548160ff02191690831515021790555050506200098c565b7f4e487b71000000000000000000000000000000000000000000000000000000005f52602160045260245ffd5b5f81519050919050565b7f4e487b71000000000000000000000000000000000000000000000000000000005f52604160045260245ffd5b7f4e487b71000000000000000000000000000000000000000000000000000000005f52602260045260245ffd5b5f6002820490506001821680620005ab57607f821691505b602082108103620005c157620005c062000566565b5b50919050565b5f819050815f5260205f209050919050565b5f6020601f8301049050919050565b5f82821b905092915050565b5f60088302620006257fffffffffffffffffffffffffffffffffffffffffffffffffffffffffffffffff82620005e8565b620006318683620005e8565b95508019841693508086168417925050509392505050565b5f819050919050565b5f819050919050565b5f6200067b620006756200066f8462000649565b62000652565b62000649565b9050919050565b5f819050919050565b62000696836200065b565b620006ae620006a58262000682565b848454620005f4565b825550505050565b5f90565b620006c4620006b6565b620006d18184846200068b565b505050565b5b81811015620006f857620006ec5f82620006ba565b600181019050620006d7565b5050565b601f82111562000747576200071181620005c7565b6200071c84620005d9565b810160208510156200072c578190505b620007446200073b85620005d9565b830182620006d6565b50505b505050565b5f82821c905092915050565b5f620007695f19846008026200074c565b1980831691505092915050565b5f62000783838362000758565b9150826002028217905092915050565b6200079e826200052f565b67ffffffffffffffff811115620007ba57620007b962000539565b5b620007c6825462000593565b620007d3828285620006fc565b5f60209050601f83116001811462000809575f8415620007f4578287015190505b62000800858262000776565b8655506200086f565b601f1984166200081986620005c7565b5f5b8281101562000842578489015182556001820191506020850194506020810190506200081b565b868310156200086257848901516200085e601f89168262000758565b8355505b6001600288020188555050505b505050505050565b5f81549050620008878162000593565b9050919050565b8181036200089e5750506200098a565b620008a98262000877565b67ffffffffffffffff811115620008c557620008c462000539565b5b620008d1825462000593565b620008de828285620006fc565b5f601f83116001811462000910575f8415620008fb578287015490505b62000907858262000776565b86555062000983565b601f1984166200092087620005c7565b96506200092d86620005c7565b5f5b8281101562000956578489015482556001820191506001850194506020810190506200092f565b8683101562000976578489015462000972601f89168262000758565b8355505b6001600288020188555050505b5050505050505b565b6142e9806200099a5f395ff3fe6080604052600436106100dc575f3560e01c80636c788a0d1161007e5780638da5cb5b116100585780638da5cb5b1461028e578063a81a5171146102b8578063a87430ba146102d4578063b3b2645614610319576100dc565b80636c788a0d146102145780637444144b1461023e57806388aa5f7114610266576100dc565b80634b49307d116100ba5780634b49307d1461015c5780634da3dd1e1461018657806350cab276146101c25780635aa68ac0146101ea576100dc565b80631379b315146100e057806331ae450b146101085780634958164a14610132575b5f80fd5b3480156100eb575f80fd5b5061010660048036038101906101019190612e1a565b610341565b005b348015610113575f80fd5b5061011c6103ad565b6040516101299190613238565b60405180910390f35b34801561013d575f80fd5b506101466106e0565b6040516101539190613238565b60405180910390f35b348015610167575f80fd5b50610170610a13565b60405161017d9190613421565b60405180910390f35b348015610191575f80fd5b506101ac60048036038101906101a7919061346b565b610c48565b6040516101b99190613502565b60405180910390f35b3480156101cd575f80fd5b506101e860048036038101906101e39190613522565b610da8565b005b3480156101f5575f80fd5b506101fe610dd6565b60405161020b9190613238565b60405180910390f35b34801561021f575f80fd5b50610228611211565b6040516102359190613578565b60405180910390f35b348015610249575f80fd5b50610264600480360381019061025f91906135bb565b611217565b005b348015610271575f80fd5b5061028c600480360381019061028791906135f9565b61155c565b005b348015610299575f80fd5b506102a2611876565b6040516102af9190613646565b60405180910390f35b6102d260048036038101906102cd9190613689565b611899565b005b3480156102df575f80fd5b506102fa60048036038101906102f5919061346b565b611d2f565b6040516103109a9998979695949392919061374b565b60405180910390f35b348015610324575f80fd5b5061033f600480360381019061033a9190613522565b611f70565b005b600281600281111561035657610355612fa0565b5b1115610397576040517f08c379a000000000000000000000000000000000000000000000000000000000815260040161038e90613844565b60405180910390fd5b6103a685600186868686611f9d565b5050505050565b60606005805480602002602001604051908101604052809291908181526020015f905b828210156106d7578382905f5260205f209060060201604051806101400160405290815f820154815260200160018201805461040b9061388f565b80601f01602080910402602001604051908101604052809291908181526020018280546104379061388f565b80156104825780601f1061045957610100808354040283529160200191610482565b820191905f5260205f20905b81548152906001019060200180831161046557829003601f168201915b50505050508152602001600282015f9054906101000a900460ff1660028111156104af576104ae612fa0565b5b60028111156104c1576104c0612fa0565b5b81526020016002820160019054906101000a900473ffffffffffffffffffffffffffffffffffffffff1673ffffffffffffffffffffffffffffffffffffffff1673ffffffffffffffffffffffffffffffffffffffff1681526020016002820160159054906101000a900460ff161515151581526020016002820160169054906101000a900460ff1660ff1660ff1681526020016003820180546105639061388f565b80601f016020809104026020016040519081016040528092919081815260200182805461058f9061388f565b80156105da5780601f106105b1576101008083540402835291602001916105da565b820191905f5260205f20905b8154815290600101906020018083116105bd57829003601f168201915b505050505081526020016004820180546105f39061388f565b80601f016020809104026020016040519081016040528092919081815260200182805461061f9061388f565b801561066a5780601f106106415761010080835404028352916020019161066a565b820191905f5260205f20905b81548152906001019060200180831161064d57829003601f168201915b50505050508152602001600582015f9054906101000a900460ff16600281111561069757610696612fa0565b5b60028111156106a9576106a8612fa0565b5b81526020016005820160019054906101000a900460ff161515151581525050815260200190600101906103d0565b50505050905090565b60606007805480602002602001604051908101604052809291908181526020015f905b82821015610a0a578382905f5260205f209060060201604051806101400160405290815f820154815260200160018201805461073e9061388f565b80601f016020809104026020016040519081016040528092919081815260200182805461076a9061388f565b80156107b55780601f1061078c576101008083540402835291602001916107b5565b820191905f5260205f20905b81548152906001019060200180831161079857829003601f168201915b50505050508152602001600282015f9054906101000a900460ff1660028111156107e2576107e1612fa0565b5b60028111156107f4576107f3612fa0565b5b81526020016002820160019054906101000a900473ffffffffffffffffffffffffffffffffffffffff1673ffffffffffffffffffffffffffffffffffffffff1673ffffffffffffffffffffffffffffffffffffffff1681526020016002820160159054906101000a900460ff161515151581526020016002820160169054906101000a900460ff1660ff1660ff1681526020016003820180546108969061388f565b80601f01602080910402602001604051908101604052809291908181526020018280546108c29061388f565b801561090d5780601f106108e45761010080835404028352916020019161090d565b820191905f5260205f20905b8154815290600101906020018083116108f057829003601f168201915b505050505081526020016004820180546109269061388f565b80601f01602080910402602001604051908101604052809291908181526020018280546109529061388f565b801561099d5780601f106109745761010080835404028352916020019161099d565b820191905f5260205f20905b81548152906001019060200180831161098057829003601f168201915b50505050508152602001600582015f9054906101000a900460ff1660028111156109ca576109c9612fa0565b5b60028111156109dc576109db612fa0565b5b81526020016005820160019054906101000a900460ff16151515158152505081526020019060010190610703565b50505050905090565b606060078054905067ffffffffffffffff811115610a3457610a33612c9d565b5b604051908082528060200260200182016040528015610a6757816020015b6060815260200190600190039081610a525790505b5090505f5b600780549050811015610c445760045f60078381548110610a9057610a8f6138bf565b5b905f5260205f20906006020160020160019054906101000a900473ffffffffffffffffffffffffffffffffffffffff1673ffffffffffffffffffffffffffffffffffffffff1673ffffffffffffffffffffffffffffffffffffffff1681526020019081526020015f20805480602002602001604051908101604052809291908181526020015f905b82821015610c0f578382905f5260205f2090600502016040518060a00160405290815f82015f9054906101000a900473ffffffffffffffffffffffffffffffffffffffff1673ffffffffffffffffffffffffffffffffffffffff1673ffffffffffffffffffffffffffffffffffffffff168152602001600182015f9054906101000a900473ffffffffffffffffffffffffffffffffffffffff1673ffffffffffffffffffffffffffffffffffffffff1673ffffffffffffffffffffffffffffffffffffffff168152602001600282015481526020016003820154815260200160048201548152505081526020019060010190610b18565b50505050828281518110610c2657610c256138bf565b5b60200260200101819052508080610c3c90613919565b915050610a6c565b5090565b606060045f8373ffffffffffffffffffffffffffffffffffffffff1673ffffffffffffffffffffffffffffffffffffffff1681526020019081526020015f20805480602002602001604051908101604052809291908181526020015f905b82821015610d9d578382905f5260205f2090600502016040518060a00160405290815f82015f9054906101000a900473ffffffffffffffffffffffffffffffffffffffff1673ffffffffffffffffffffffffffffffffffffffff1673ffffffffffffffffffffffffffffffffffffffff168152602001600182015f9054906101000a900473ffffffffffffffffffffffffffffffffffffffff1673ffffffffffffffffffffffffffffffffffffffff1673ffffffffffffffffffffffffffffffffffffffff168152602001600282015481526020016003820154815260200160048201548152505081526020019060010190610ca6565b505050509050919050565b610dd38160025f60405180602001604052805f81525060405180602001604052805f8152505f611f9d565b50565b606060035f3373ffffffffffffffffffffffffffffffffffffffff1673ffffffffffffffffffffffffffffffffffffffff1681526020019081526020015f2060020160159054906101000a900460ff168015610ea157505f6002811115610e4057610e3f612fa0565b5b60035f3373ffffffffffffffffffffffffffffffffffffffff1673ffffffffffffffffffffffffffffffffffffffff1681526020019081526020015f206002015f9054906101000a900460ff166002811115610e9f57610e9e612fa0565b5b145b610ee0576040517f08c379a0000000000000000000000000000000000000000000000000000000008152600401610ed7906139d0565b60405180910390fd5b6006805480602002602001604051908101604052809291908181526020015f905b82821015611208578382905f5260205f209060060201604051806101400160405290815f8201548152602001600182018054610f3c9061388f565b80601f0160208091040260200160405190810160405280929190818152602001828054610f689061388f565b8015610fb35780601f10610f8a57610100808354040283529160200191610fb3565b820191905f5260205f20905b815481529060010190602001808311610f9657829003601f168201915b50505050508152602001600282015f9054906101000a900460ff166002811115610fe057610fdf612fa0565b5b6002811115610ff257610ff1612fa0565b5b81526020016002820160019054906101000a900473ffffffffffffffffffffffffffffffffffffffff1673ffffffffffffffffffffffffffffffffffffffff1673ffffffffffffffffffffffffffffffffffffffff1681526020016002820160159054906101000a900460ff161515151581526020016002820160169054906101000a900460ff1660ff1660ff1681526020016003820180546110949061388f565b80601f01602080910402602001604051908101604052809291908181526020018280546110c09061388f565b801561110b5780601f106110e25761010080835404028352916020019161110b565b820191905f5260205f20905b8154815290600101906020018083116110ee57829003601f168201915b505050505081526020016004820180546111249061388f565b80601f01602080910402602001604051908101604052809291908181526020018280546111509061388f565b801561119b5780601f106111725761010080835404028352916020019161119b565b820191905f5260205f20905b81548152906001019060200180831161117e57829003601f168201915b50505050508152602001600582015f9054906101000a900460ff1660028111156111c8576111c7612fa0565b5b60028111156111da576111d9612fa0565b5b81526020016005820160019054906101000a900460ff16151515158152505081526020019060010190610f01565b50505050905090565b60025481565b60035f3373ffffffffffffffffffffffffffffffffffffffff1673ffffffffffffffffffffffffffffffffffffffff1681526020019081526020015f2060020160159054906101000a900460ff1680156112e057505f600281111561127f5761127e612fa0565b5b60035f3373ffffffffffffffffffffffffffffffffffffffff1673ffffffffffffffffffffffffffffffffffffffff1681526020019081526020015f206002015f9054906101000a900460ff1660028111156112de576112dd612fa0565b5b145b61131f576040517f08c379a0000000000000000000000000000000000000000000000000000000008152600401611316906139d0565b60405180910390fd5b8160035f8273ffffffffffffffffffffffffffffffffffffffff1673ffffffffffffffffffffffffffffffffffffffff1681526020019081526020015f2060020160159054906101000a900460ff166113ad576040517f08c379a00000000000000000000000000000000000000000000000000000000081526004016113a490613a38565b60405180910390fd5b600160028111156113c1576113c0612fa0565b5b60035f8573ffffffffffffffffffffffffffffffffffffffff1673ffffffffffffffffffffffffffffffffffffffff1681526020019081526020015f206002015f9054906101000a900460ff1660028111156114205761141f612fa0565b5b14611460576040517f08c379a000000000000000000000000000000000000000000000000000000000815260040161145790613aa0565b60405180910390fd5b60035f8473ffffffffffffffffffffffffffffffffffffffff1673ffffffffffffffffffffffffffffffffffffffff1681526020019081526020015f2060050160019054906101000a900460ff1615806114b75750815b6114f6576040517f08c379a00000000000000000000000000000000000000000000000000000000081526004016114ed90613b2e565b60405180910390fd5b8160035f8573ffffffffffffffffffffffffffffffffffffffff1673ffffffffffffffffffffffffffffffffffffffff1681526020019081526020015f2060050160016101000a81548160ff021916908315150217905550611557836129c7565b505050565b60035f3373ffffffffffffffffffffffffffffffffffffffff1673ffffffffffffffffffffffffffffffffffffffff1681526020019081526020015f2060020160159054906101000a900460ff16801561162557505f60028111156115c4576115c3612fa0565b5b60035f3373ffffffffffffffffffffffffffffffffffffffff1673ffffffffffffffffffffffffffffffffffffffff1681526020019081526020015f206002015f9054906101000a900460ff16600281111561162357611622612fa0565b5b145b611664576040517f08c379a000000000000000000000000000000000000000000000000000000000815260040161165b906139d0565b60405180910390fd5b8160035f8273ffffffffffffffffffffffffffffffffffffffff1673ffffffffffffffffffffffffffffffffffffffff1681526020019081526020015f2060020160159054906101000a900460ff166116f2576040517f08c379a00000000000000000000000000000000000000000000000000000000081526004016116e990613a38565b60405180910390fd5b6001600281111561170657611705612fa0565b5b60035f8573ffffffffffffffffffffffffffffffffffffffff1673ffffffffffffffffffffffffffffffffffffffff1681526020019081526020015f206002015f9054906101000a900460ff16600281111561176557611764612fa0565b5b146117a5576040517f08c379a000000000000000000000000000000000000000000000000000000000815260040161179c90613aa0565b60405180910390fd5b60028260ff1611156117ec576040517f08c379a00000000000000000000000000000000000000000000000000000000081526004016117e390613844565b60405180910390fd5b8160ff16600281111561180257611801612fa0565b5b60035f8573ffffffffffffffffffffffffffffffffffffffff1673ffffffffffffffffffffffffffffffffffffffff1681526020019081526020015f206005015f6101000a81548160ff0219169083600281111561186357611862612fa0565b5b0217905550611871836129c7565b505050565b5f8054906101000a900473ffffffffffffffffffffffffffffffffffffffff1681565b60035f3373ffffffffffffffffffffffffffffffffffffffff1673ffffffffffffffffffffffffffffffffffffffff1681526020019081526020015f2060020160159054906101000a900460ff16801561196357506001600281111561190257611901612fa0565b5b60035f3373ffffffffffffffffffffffffffffffffffffffff1673ffffffffffffffffffffffffffffffffffffffff1681526020019081526020015f206002015f9054906101000a900460ff16600281111561196157611960612fa0565b5b145b6119a2576040517f08c379a000000000000000000000000000000000000000000000000000000000815260040161199990613bbc565b60405180910390fd5b6002808111156119b5576119b4612fa0565b5b60035f8473ffffffffffffffffffffffffffffffffffffffff1673ffffffffffffffffffffffffffffffffffffffff1681526020019081526020015f206002015f9054906101000a900460ff166002811115611a1457611a13612fa0565b5b14611a54576040517f08c379a0000000000000000000000000000000000000000000000000000000008152600401611a4b90613c24565b60405180910390fd5b6002543414611a98576040517f08c379a0000000000000000000000000000000000000000000000000000000008152600401611a8f90613c8c565b60405180910390fd5b5f61070882611aa79190613caa565b90505f60045f8573ffffffffffffffffffffffffffffffffffffffff1673ffffffffffffffffffffffffffffffffffffffff1681526020019081526020015f2090505f5b8180549050811015611ba1575f828281548110611b0b57611b0a6138bf565b5b905f5260205f2090600502016003015485108015611b4a5750828281548110611b3757611b366138bf565b5b905f5260205f2090600502016002015484115b90508015611b8d576040517f08c379a0000000000000000000000000000000000000000000000000000000008152600401611b8490613d27565b60405180910390fd5b508080611b9990613919565b915050611aeb565b50806040518060a001604052803373ffffffffffffffffffffffffffffffffffffffff1681526020018673ffffffffffffffffffffffffffffffffffffffff16815260200185815260200184815260200134815250908060018154018082558091505060019003905f5260205f2090600502015f909190919091505f820151815f015f6101000a81548173ffffffffffffffffffffffffffffffffffffffff021916908373ffffffffffffffffffffffffffffffffffffffff1602179055506020820151816001015f6101000a81548173ffffffffffffffffffffffffffffffffffffffff021916908373ffffffffffffffffffffffffffffffffffffffff16021790555060408201518160020155606082015181600301556080820151816004015550505f8054906101000a900473ffffffffffffffffffffffffffffffffffffffff1673ffffffffffffffffffffffffffffffffffffffff166108fc3490811502906040515f60405180830381858888f19350505050158015611d28573d5f803e3d5ffd5b5050505050565b6003602052805f5260405f205f91509050805f015490806001018054611d549061388f565b80601f0160208091040260200160405190810160405280929190818152602001828054611d809061388f565b8015611dcb5780601f10611da257610100808354040283529160200191611dcb565b820191905f5260205f20905b815481529060010190602001808311611dae57829003601f168201915b505050505090806002015f9054906101000a900460ff16908060020160019054906101000a900473ffffffffffffffffffffffffffffffffffffffff16908060020160159054906101000a900460ff16908060020160169054906101000a900460ff1690806003018054611e3e9061388f565b80601f0160208091040260200160405190810160405280929190818152602001828054611e6a9061388f565b8015611eb55780601f10611e8c57610100808354040283529160200191611eb5565b820191905f5260205f20905b815481529060010190602001808311611e9857829003601f168201915b505050505090806004018054611eca9061388f565b80601f0160208091040260200160405190810160405280929190818152602001828054611ef69061388f565b8015611f415780601f10611f1857610100808354040283529160200191611f41565b820191905f5260205f20905b815481529060010190602001808311611f2457829003601f168201915b505050505090806005015f9054906101000a900460ff16908060050160019054906101000a900460ff1690508a565b611f9a815f8060405180602001604052805f81525060405180602001604052805f8152505f611f9d565b50565b60035f3373ffffffffffffffffffffffffffffffffffffffff1673ffffffffffffffffffffffffffffffffffffffff1681526020019081526020015f2060020160159054906101000a900460ff161561202b576040517f08c379a000000000000000000000000000000000000000000000000000000000815260040161202290613d8f565b60405180910390fd5b5f86511161206e576040517f08c379a000000000000000000000000000000000000000000000000000000000815260040161206590613df7565b60405180910390fd5b6001600281111561208257612081612fa0565b5b85600281111561209557612094612fa0565b5b03612166575f8460ff16116120df576040517f08c379a00000000000000000000000000000000000000000000000000000000081526004016120d690613e5f565b60405180910390fd5b5f835111612122576040517f08c379a000000000000000000000000000000000000000000000000000000000815260040161211990613ec7565b60405180910390fd5b5f825111612165576040517f08c379a000000000000000000000000000000000000000000000000000000000815260040161215c90613f2f565b60405180910390fd5b5b5f6001600281111561217b5761217a612fa0565b5b86600281111561218e5761218d612fa0565b5b14612199575f6121ae565b60015f81546121a790613919565b9190508190555b90505f6040518061014001604052808381526020018981526020018860028111156121dc576121db612fa0565b5b81526020013373ffffffffffffffffffffffffffffffffffffffff1681526020016001151581526020016001600281111561221a57612219612fa0565b5b89600281111561222d5761222c612fa0565b5b1461223957601461223b565b875b60ff1681526020016001600281111561225757612256612fa0565b5b89600281111561226a57612269612fa0565b5b146122835760405180602001604052805f815250612285565b865b81526020016001600281111561229e5761229d612fa0565b5b8960028111156122b1576122b0612fa0565b5b146122ca5760405180602001604052805f8152506122cc565b855b8152602001600160028111156122e5576122e4612fa0565b5b8960028111156122f8576122f7612fa0565b5b14612303575f612305565b845b600281111561231757612316612fa0565b5b81526020015f151581525090508060035f3373ffffffffffffffffffffffffffffffffffffffff1673ffffffffffffffffffffffffffffffffffffffff1681526020019081526020015f205f820151815f0155602082015181600101908161237f91906140ea565b506040820151816002015f6101000a81548160ff021916908360028111156123aa576123a9612fa0565b5b021790555060608201518160020160016101000a81548173ffffffffffffffffffffffffffffffffffffffff021916908373ffffffffffffffffffffffffffffffffffffffff16021790555060808201518160020160156101000a81548160ff02191690831515021790555060a08201518160020160166101000a81548160ff021916908360ff16021790555060c082015181600301908161244c91906140ea565b5060e082015181600401908161246291906140ea565b50610100820151816005015f6101000a81548160ff0219169083600281111561248e5761248d612fa0565b5b02179055506101208201518160050160016101000a81548160ff0219169083151502179055509050505f60028111156124ca576124c9612fa0565b5b8760028111156124dd576124dc612fa0565b5b0361266457600581908060018154018082558091505060019003905f5260205f2090600602015f909190919091505f820151815f0155602082015181600101908161252891906140ea565b506040820151816002015f6101000a81548160ff0219169083600281111561255357612552612fa0565b5b021790555060608201518160020160016101000a81548173ffffffffffffffffffffffffffffffffffffffff021916908373ffffffffffffffffffffffffffffffffffffffff16021790555060808201518160020160156101000a81548160ff02191690831515021790555060a08201518160020160166101000a81548160ff021916908360ff16021790555060c08201518160030190816125f591906140ea565b5060e082015181600401908161260b91906140ea565b50610100820151816005015f6101000a81548160ff0219169083600281111561263757612636612fa0565b5b02179055506101208201518160050160016101000a81548160ff02191690831515021790555050506129bd565b6001600281111561267857612677612fa0565b5b87600281111561268b5761268a612fa0565b5b0361281257600681908060018154018082558091505060019003905f5260205f2090600602015f909190919091505f820151815f015560208201518160010190816126d691906140ea565b506040820151816002015f6101000a81548160ff0219169083600281111561270157612700612fa0565b5b021790555060608201518160020160016101000a81548173ffffffffffffffffffffffffffffffffffffffff021916908373ffffffffffffffffffffffffffffffffffffffff16021790555060808201518160020160156101000a81548160ff02191690831515021790555060a08201518160020160166101000a81548160ff021916908360ff16021790555060c08201518160030190816127a391906140ea565b5060e08201518160040190816127b991906140ea565b50610100820151816005015f6101000a81548160ff021916908360028111156127e5576127e4612fa0565b5b02179055506101208201518160050160016101000a81548160ff02191690831515021790555050506129bc565b60028081111561282557612824612fa0565b5b87600281111561283857612837612fa0565b5b036129bb57600781908060018154018082558091505060019003905f5260205f2090600602015f909190919091505f820151815f0155602082015181600101908161288391906140ea565b506040820151816002015f6101000a81548160ff021916908360028111156128ae576128ad612fa0565b5b021790555060608201518160020160016101000a81548173ffffffffffffffffffffffffffffffffffffffff021916908373ffffffffffffffffffffffffffffffffffffffff16021790555060808201518160020160156101000a81548160ff02191690831515021790555060a08201518160020160166101000a81548160ff021916908360ff16021790555060c082015181600301908161295091906140ea565b5060e082015181600401908161296691906140ea565b50610100820151816005015f6101000a81548160ff0219169083600281111561299257612991612fa0565b5b02179055506101208201518160050160016101000a81548160ff02191690831515021790555050505b5b5b5050505050505050565b5f5b600680549050811015612c70578173ffffffffffffffffffffffffffffffffffffffff1660068281548110612a0157612a006138bf565b5b905f5260205f20906006020160020160019054906101000a900473ffffffffffffffffffffffffffffffffffffffff1673ffffffffffffffffffffffffffffffffffffffff1603612c5d5760035f8373ffffffffffffffffffffffffffffffffffffffff1673ffffffffffffffffffffffffffffffffffffffff1681526020019081526020015f2060068281548110612a9d57612a9c6138bf565b5b905f5260205f2090600602015f820154815f015560018201816001019081612ac591906141ce565b50600282015f9054906101000a900460ff16816002015f6101000a81548160ff02191690836002811115612afc57612afb612fa0565b5b02179055506002820160019054906101000a900473ffffffffffffffffffffffffffffffffffffffff168160020160016101000a81548173ffffffffffffffffffffffffffffffffffffffff021916908373ffffffffffffffffffffffffffffffffffffffff1602179055506002820160159054906101000a900460ff168160020160156101000a81548160ff0219169083151502179055506002820160169054906101000a900460ff168160020160166101000a81548160ff021916908360ff16021790555060038201816003019081612bd791906141ce565b5060048201816004019081612bec91906141ce565b50600582015f9054906101000a900460ff16816005015f6101000a81548160ff02191690836002811115612c2357612c22612fa0565b5b02179055506005820160019054906101000a900460ff168160050160016101000a81548160ff021916908315150217905550905050612c70565b8080612c6890613919565b9150506129c9565b5050565b5f604051905090565b5f80fd5b5f80fd5b5f80fd5b5f80fd5b5f601f19601f8301169050919050565b7f4e487b71000000000000000000000000000000000000000000000000000000005f52604160045260245ffd5b612cd382612c8d565b810181811067ffffffffffffffff82111715612cf257612cf1612c9d565b5b80604052505050565b5f612d04612c74565b9050612d108282612cca565b919050565b5f67ffffffffffffffff821115612d2f57612d2e612c9d565b5b612d3882612c8d565b9050602081019050919050565b828183375f83830152505050565b5f612d65612d6084612d15565b612cfb565b905082815260208101848484011115612d8157612d80612c89565b5b612d8c848285612d45565b509392505050565b5f82601f830112612da857612da7612c85565b5b8135612db8848260208601612d53565b91505092915050565b5f60ff82169050919050565b612dd681612dc1565b8114612de0575f80fd5b50565b5f81359050612df181612dcd565b92915050565b60038110612e03575f80fd5b50565b5f81359050612e1481612df7565b92915050565b5f805f805f60a08688031215612e3357612e32612c7d565b5b5f86013567ffffffffffffffff811115612e5057612e4f612c81565b5b612e5c88828901612d94565b9550506020612e6d88828901612de3565b945050604086013567ffffffffffffffff811115612e8e57612e8d612c81565b5b612e9a88828901612d94565b935050606086013567ffffffffffffffff811115612ebb57612eba612c81565b5b612ec788828901612d94565b9250506080612ed888828901612e06565b9150509295509295909350565b5f81519050919050565b5f82825260208201905092915050565b5f819050602082019050919050565b5f819050919050565b612f2081612f0e565b82525050565b5f81519050919050565b5f82825260208201905092915050565b5f5b83811015612f5d578082015181840152602081019050612f42565b5f8484015250505050565b5f612f7282612f26565b612f7c8185612f30565b9350612f8c818560208601612f40565b612f9581612c8d565b840191505092915050565b7f4e487b71000000000000000000000000000000000000000000000000000000005f52602160045260245ffd5b60038110612fde57612fdd612fa0565b5b50565b5f819050612fee82612fcd565b919050565b5f612ffd82612fe1565b9050919050565b61300d81612ff3565b82525050565b5f73ffffffffffffffffffffffffffffffffffffffff82169050919050565b5f61303c82613013565b9050919050565b61304c81613032565b82525050565b5f8115159050919050565b61306681613052565b82525050565b61307581612dc1565b82525050565b6003811061308c5761308b612fa0565b5b50565b5f81905061309c8261307b565b919050565b5f6130ab8261308f565b9050919050565b6130bb816130a1565b82525050565b5f61014083015f8301516130d75f860182612f17565b50602083015184820360208601526130ef8282612f68565b91505060408301516131046040860182613004565b5060608301516131176060860182613043565b50608083015161312a608086018261305d565b5060a083015161313d60a086018261306c565b5060c083015184820360c08601526131558282612f68565b91505060e083015184820360e086015261316f8282612f68565b9150506101008301516131866101008601826130b2565b5061012083015161319b61012086018261305d565b508091505092915050565b5f6131b183836130c1565b905092915050565b5f602082019050919050565b5f6131cf82612ee5565b6131d98185612eef565b9350836020820285016131eb85612eff565b805f5b85811015613226578484038952815161320785826131a6565b9450613212836131b9565b925060208a019950506001810190506131ee565b50829750879550505050505092915050565b5f6020820190508181035f83015261325081846131c5565b905092915050565b5f81519050919050565b5f82825260208201905092915050565b5f819050602082019050919050565b5f81519050919050565b5f82825260208201905092915050565b5f819050602082019050919050565b60a082015f8201516132be5f850182613043565b5060208201516132d16020850182613043565b5060408201516132e46040850182612f17565b5060608201516132f76060850182612f17565b50608082015161330a6080850182612f17565b50505050565b5f61331b83836132aa565b60a08301905092915050565b5f602082019050919050565b5f61333d82613281565b613347818561328b565b93506133528361329b565b805f5b838110156133825781516133698882613310565b975061337483613327565b925050600181019050613355565b5085935050505092915050565b5f61339a8383613333565b905092915050565b5f602082019050919050565b5f6133b882613258565b6133c28185613262565b9350836020820285016133d485613272565b805f5b8581101561340f57848403895281516133f0858261338f565b94506133fb836133a2565b925060208a019950506001810190506133d7565b50829750879550505050505092915050565b5f6020820190508181035f83015261343981846133ae565b905092915050565b61344a81613032565b8114613454575f80fd5b50565b5f8135905061346581613441565b92915050565b5f602082840312156134805761347f612c7d565b5b5f61348d84828501613457565b91505092915050565b5f82825260208201905092915050565b5f6134b082613281565b6134ba8185613496565b93506134c58361329b565b805f5b838110156134f55781516134dc8882613310565b97506134e783613327565b9250506001810190506134c8565b5085935050505092915050565b5f6020820190508181035f83015261351a81846134a6565b905092915050565b5f6020828403121561353757613536612c7d565b5b5f82013567ffffffffffffffff81111561355457613553612c81565b5b61356084828501612d94565b91505092915050565b61357281612f0e565b82525050565b5f60208201905061358b5f830184613569565b92915050565b61359a81613052565b81146135a4575f80fd5b50565b5f813590506135b581613591565b92915050565b5f80604083850312156135d1576135d0612c7d565b5b5f6135de85828601613457565b92505060206135ef858286016135a7565b9150509250929050565b5f806040838503121561360f5761360e612c7d565b5b5f61361c85828601613457565b925050602061362d85828601612de3565b9150509250929050565b61364081613032565b82525050565b5f6020820190506136595f830184613637565b92915050565b61366881612f0e565b8114613672575f80fd5b50565b5f813590506136838161365f565b92915050565b5f806040838503121561369f5761369e612c7d565b5b5f6136ac85828601613457565b92505060206136bd85828601613675565b9150509250929050565b5f82825260208201905092915050565b5f6136e182612f26565b6136eb81856136c7565b93506136fb818560208601612f40565b61370481612c8d565b840191505092915050565b61371881612ff3565b82525050565b61372781613052565b82525050565b61373681612dc1565b82525050565b613745816130a1565b82525050565b5f6101408201905061375f5f83018d613569565b8181036020830152613771818c6136d7565b9050613780604083018b61370f565b61378d606083018a613637565b61379a608083018961371e565b6137a760a083018861372d565b81810360c08301526137b981876136d7565b905081810360e08301526137cd81866136d7565b90506137dd61010083018561373c565b6137eb61012083018461371e565b9b9a5050505050505050505050565b7f496e76616c696420747261696e696e67207479706500000000000000000000005f82015250565b5f61382e6015836136c7565b9150613839826137fa565b602082019050919050565b5f6020820190508181035f83015261385b81613822565b9050919050565b7f4e487b71000000000000000000000000000000000000000000000000000000005f52602260045260245ffd5b5f60028204905060018216806138a657607f821691505b6020821081036138b9576138b8613862565b5b50919050565b7f4e487b71000000000000000000000000000000000000000000000000000000005f52603260045260245ffd5b7f4e487b71000000000000000000000000000000000000000000000000000000005f52601160045260245ffd5b5f61392382612f0e565b91507fffffffffffffffffffffffffffffffffffffffffffffffffffffffffffffffff8203613955576139546138ec565b5b600182019050919050565b7f4f6e6c792061646d696e732063616e2063616c6c20746869732066756e6374695f8201527f6f6e000000000000000000000000000000000000000000000000000000000000602082015250565b5f6139ba6022836136c7565b91506139c582613960565b604082019050919050565b5f6020820190508181035f8301526139e7816139ae565b9050919050565b7f5573657220646f6573206e6f74206578697374000000000000000000000000005f82015250565b5f613a226013836136c7565b9150613a2d826139ee565b602082019050919050565b5f6020820190508181035f830152613a4f81613a16565b9050919050565b7f4e6f742061207061727469636970616e740000000000000000000000000000005f82015250565b5f613a8a6011836136c7565b9150613a9582613a56565b602082019050919050565b5f6020820190508181035f830152613ab781613a7e565b9050919050565b7f43616e6e6f74206368616e676520636f6d706c6574696f6e20737461747573205f8201527f66726f6d207472756520746f2066616c73650000000000000000000000000000602082015250565b5f613b186032836136c7565b9150613b2382613abe565b604082019050919050565b5f6020820190508181035f830152613b4581613b0c565b9050919050565b7f4f6e6c79207061727469636970616e74732063616e2063616c6c2074686973205f8201527f66756e6374696f6e000000000000000000000000000000000000000000000000602082015250565b5f613ba66028836136c7565b9150613bb182613b4c565b604082019050919050565b5f6020820190508181035f830152613bd381613b9a565b9050919050565b7f496e76616c696420747261696e657200000000000000000000000000000000005f82015250565b5f613c0e600f836136c7565b9150613c1982613bda565b602082019050919050565b5f6020820190508181035f830152613c3b81613c02565b9050919050565b7f496e636f727265637420626f6f6b696e672066656500000000000000000000005f82015250565b5f613c766015836136c7565b9150613c8182613c42565b602082019050919050565b5f6020820190508181035f830152613ca381613c6a565b9050919050565b5f613cb482612f0e565b9150613cbf83612f0e565b9250828201905080821115613cd757613cd66138ec565b5b92915050565b7f536c6f74206f7665726c617073000000000000000000000000000000000000005f82015250565b5f613d11600d836136c7565b9150613d1c82613cdd565b602082019050919050565b5f6020820190508181035f830152613d3e81613d05565b9050919050565b7f5573657220616c726561647920726567697374657265640000000000000000005f82015250565b5f613d796017836136c7565b9150613d8482613d45565b602082019050919050565b5f6020820190508181035f830152613da681613d6d565b9050919050565b7f4e616d652063616e6e6f7420626520656d7074790000000000000000000000005f82015250565b5f613de16014836136c7565b9150613dec82613dad565b602082019050919050565b5f6020820190508181035f830152613e0e81613dd5565b9050919050565b7f496e76616c6964206167650000000000000000000000000000000000000000005f82015250565b5f613e49600b836136c7565b9150613e5482613e15565b602082019050919050565b5f6020820190508181035f830152613e7681613e3d565b9050919050565b7f506c656173652070726f7669646520796f75722067656e6465720000000000005f82015250565b5f613eb1601a836136c7565b9150613ebc82613e7d565b602082019050919050565b5f6020820190508181035f830152613ede81613ea5565b9050919050565b7f506c656173652070726f7669646520796f7572206469737472696374000000005f82015250565b5f613f19601c836136c7565b9150613f2482613ee5565b602082019050919050565b5f6020820190508181035f830152613f4681613f0d565b9050919050565b5f819050815f5260205f209050919050565b5f6020601f8301049050919050565b5f82821b905092915050565b5f60088302613fa97fffffffffffffffffffffffffffffffffffffffffffffffffffffffffffffffff82613f6e565b613fb38683613f6e565b95508019841693508086168417925050509392505050565b5f819050919050565b5f613fee613fe9613fe484612f0e565b613fcb565b612f0e565b9050919050565b5f819050919050565b61400783613fd4565b61401b61401382613ff5565b848454613f7a565b825550505050565b5f90565b61402f614023565b61403a818484613ffe565b505050565b5b8181101561405d576140525f82614027565b600181019050614040565b5050565b601f8211156140a25761407381613f4d565b61407c84613f5f565b8101602085101561408b578190505b61409f61409785613f5f565b83018261403f565b50505b505050565b5f82821c905092915050565b5f6140c25f19846008026140a7565b1980831691505092915050565b5f6140da83836140b3565b9150826002028217905092915050565b6140f382612f26565b67ffffffffffffffff81111561410c5761410b612c9d565b5b614116825461388f565b614121828285614061565b5f60209050601f831160018114614152575f8415614140578287015190505b61414a85826140cf565b8655506141b1565b601f19841661416086613f4d565b5f5b8281101561418757848901518255600182019150602085019450602081019050614162565b868310156141a457848901516141a0601f8916826140b3565b8355505b6001600288020188555050505b505050505050565b5f815490506141c78161388f565b9050919050565b8181036141dc5750506142b1565b6141e5826141b9565b67ffffffffffffffff8111156141fe576141fd612c9d565b5b614208825461388f565b614213828285614061565b5f601f831160018114614240575f841561422e578287015490505b61423885826140cf565b8655506142aa565b601f19841661424e87613f4d565b965061425986613f4d565b5f5b828110156142805784890154825560018201915060018501945060208101905061425b565b8683101561429d5784890154614299601f8916826140b3565b8355505b6001600288020188555050505b5050505050505b56fea2646970667358221220446c26d69514c7135d258f161ad24435b1eaa5f42f40496e42126b354c0c93fc64736f6c63430008150033",
  "immutableReferences": {},
  "source": "// SPDX-License-Identifier: GPL-3.0\r\npragma solidity >=0.8.2 <0.9.0;\r\n\r\ncontract UserManagement {\r\n\r\n    /*\r\n    ==============================================================\r\n                              Enum and Struct\r\n    ===============================================================\r\n    */\r\n    enum TrainingType { first_aid, shelter_rebuild, food_safety }\r\n    \r\n    enum Role { Admin, Participant, Trainer }\r\n\r\n\r\n    struct User {\r\n        uint256 id;\r\n        string name;\r\n        Role role;\r\n        address wallet_addr;\r\n\r\n        bool isRegistered;\r\n        uint8 age;\r\n        string gender;\r\n        string district;\r\n        TrainingType training_interest;\r\n\r\n        bool has_completed_training;\r\n    }\r\n\r\n    struct Booking {\r\n        address participant;\r\n        address trainer;\r\n        uint256 startTime;\r\n        uint256 endTime;\r\n        uint256 paidFee;\r\n    }\r\n\r\n    /*\r\n    =======================================================================\r\n                     State Variable, Modifiers, constructor\r\n    =======================================================================\r\n    */\r\n    address public owner;\r\n\r\n    uint256 private participantCounter = 0;\r\n\r\n    uint256 public bookingFee = 0.01 ether;\r\n\r\n\r\n\r\n\r\n    mapping(address => User) public users;\r\n\r\n    mapping(address => Booking[]) private trainerBookings;\r\n\r\n    User[] private admins;\r\n    User[] private participants;\r\n    User[] private trainers;\r\n    // Booking[] public allBookings;\r\n\r\n    modifier onlyAdmin() {\r\n        require(users[msg.sender].isRegistered && users[msg.sender].role == Role.Admin, \"Only admins can call this function\");\r\n        _;\r\n    }\r\n\r\n    modifier onlyParticipant() {\r\n        require(users[msg.sender].isRegistered && users[msg.sender].role == Role.Participant, \"Only participants can call this function\");\r\n        _;\r\n    }\r\n\r\n    modifier userExists(address user_addr) {\r\n        require(users[user_addr].isRegistered, \"User does not exist\");\r\n        _;\r\n    }\r\n    \r\n\r\n    constructor() {\r\n        owner = msg.sender;\r\n        users[msg.sender] = User({\r\n            id: 0,\r\n            name: \"Admin 0\",\r\n            role: Role.Admin,\r\n            wallet_addr: msg.sender,\r\n\r\n            isRegistered: true,\r\n            age: 20,\r\n            gender: \"\",\r\n            district: \"\",\r\n\r\n            training_interest: TrainingType.first_aid,\r\n\r\n            has_completed_training: false\r\n        });\r\n        admins.push(users[msg.sender]);\r\n    }\r\n\r\n    /*\r\n    ==============================================================\r\n                       private function\r\n    =============================================================\r\n    */\r\n    function registerUser(\r\n        string memory userName,\r\n        Role userRole,\r\n        uint8 userAge,\r\n\r\n        string memory userGender,\r\n        string memory userDistrict,\r\n\r\n        TrainingType interested_type\r\n    ) \r\n        private \r\n    {\r\n        require(!users[msg.sender].isRegistered, \"User already registered\");\r\n\r\n        require(bytes(userName).length > 0, \"Name cannot be empty\");\r\n       \r\n        if (userRole == Role.Participant) {\r\n            \r\n            require(userAge > 0, \"Invalid age\");\r\n\r\n            require(bytes(userGender).length > 0, \"Please provide your gender\");\r\n\r\n            require(bytes(userDistrict).length > 0, \"Please provide your district\");\r\n        }\r\n\r\n        uint256 userId = (userRole == Role.Participant) ? ++participantCounter : 0;\r\n\r\n        User memory newUser = User({\r\n            id: userId,\r\n\r\n            name: userName,\r\n            role: userRole,\r\n\r\n            wallet_addr: msg.sender,\r\n            isRegistered: true,\r\n            age: (userRole == Role.Participant) ? userAge : 20,\r\n\r\n            gender: (userRole == Role.Participant) ? userGender : \"\",\r\n\r\n            district: (userRole == Role.Participant) ? userDistrict : \"\",\r\n\r\n            training_interest: (userRole == Role.Participant) ? interested_type : TrainingType.first_aid,\r\n\r\n            has_completed_training: false\r\n        });\r\n\r\n        users[msg.sender] = newUser;\r\n\r\n        if (userRole == Role.Admin) admins.push(newUser);\r\n\r\n        else if (userRole == Role.Participant) participants.push(newUser);\r\n\r\n        else if (userRole == Role.Trainer) trainers.push(newUser);\r\n    }\r\n\r\n    function update_participant_Array(address participantAddr) internal {\r\n\r\n        for (uint256 i = 0; i < participants.length; i++) {\r\n\r\n            if (participants[i].wallet_addr == participantAddr) {\r\n\r\n                participants[i] = users[participantAddr];\r\n\r\n                break;\r\n            }\r\n        }\r\n    }\r\n\r\n    /*\r\n    ==============================================================\r\n                          external and view functions\r\n    ===============================================================\r\n    */\r\n\r\n\r\n    function registerAsAdmin(string memory userName) external {\r\n        registerUser(userName, Role.Admin, 0, \"\", \"\", TrainingType.first_aid);\r\n    }\r\n\r\n    function registerAsTrainer(string memory userName) external {\r\n        registerUser(userName, Role.Trainer, 0, \"\", \"\", TrainingType.first_aid);\r\n    }\r\n\r\n    function registerAsParticipant(\r\n        string memory userName,\r\n        uint8 userAge,\r\n        string memory userGender,\r\n        string memory userDistrict,\r\n        TrainingType interested_type\r\n    ) \r\n external  {\r\n        require(uint(interested_type) <= 2,\"Invalid training type\");\r\n        registerUser(userName, Role.Participant, userAge, userGender, userDistrict, interested_type);\r\n    }\r\n\r\n    function updateInterest(address participantAddr,  uint8 new_Inter) external onlyAdmin userExists(participantAddr){\r\n\r\n        require(users[participantAddr].role == Role.Participant, \"Not a participant\");\r\n\r\n        if (new_Inter > 2) {revert(\"Invalid training type\");}\r\n\r\n        users[participantAddr].training_interest =  TrainingType(new_Inter);\r\n        update_participant_Array(participantAddr);\r\n    }\r\n\r\n    function updateStatus(address participantAddr, bool status ) external onlyAdmin userExists(participantAddr) {\r\n        \r\n        require(users[participantAddr].role == Role.Participant, \"Not a participant\");\r\n        require(!users[participantAddr].has_completed_training || status, \"Cannot change completion status from true to false\");\r\n        \r\n        users[participantAddr].has_completed_training = status;\r\n        \r\n        \r\n        update_participant_Array(participantAddr);\r\n    }\r\n\r\n    \r\n    function bookTrainingSlot(address trainer, uint256 startTime )external payable onlyParticipant {\r\n        \r\n        \r\n        require(users[trainer].role == Role.Trainer, \"Invalid trainer\");\r\n        require(msg.value == bookingFee, \"Incorrect booking fee\");\r\n\r\n        uint256 endTime = startTime + 30 minutes;\r\n        \r\n        Booking[] storage bookings = trainerBookings[trainer];\r\n\r\n        for (uint256 i = 0; i < bookings.length; i++) {\r\n            bool overlap = (startTime < bookings[i].endTime) && (endTime > bookings[i].startTime);\r\n           \r\n           \r\n            require(!overlap, \"Slot overlaps\");\r\n        }\r\n\r\n        bookings.push(Booking({\r\n            participant: msg.sender,\r\n            trainer: trainer,\r\n            startTime: startTime,\r\n            endTime: endTime,\r\n            paidFee: msg.value\r\n        }));\r\n        // allBookings.push(bookings[bookings.length - 1]);\r\n        payable(owner).transfer(msg.value);\r\n    }\r\n function viewAllTrainingSchedules() external view returns ( Booking[][] memory allBookings ) {\r\n        \r\n        allBookings = new Booking[][](trainers.length);\r\n        for (uint256 i = 0; i < trainers.length; i++) {\r\n\r\n            allBookings[i] = trainerBookings[trainers[i].wallet_addr];\r\n        }\r\n        return allBookings;\r\n\r\n    }\r\n\r\n    function getParticipants() external view onlyAdmin returns (User[] memory) { return participants;}\r\n\r\n    function getTrainers() external view returns (User[] memory) {return trainers;}\r\n\r\n    function getAdmins() external view returns (User[] memory) {return admins;}\r\n\r\n\r\n    function getBookingsForTrainer(address trainer) external view returns (Booking[] memory) {\r\n        return trainerBookings[trainer];\r\n    }\r\n\r\n   \r\n}\r\n",
  "sourcePath": "C:\\Projects\\Disaster_DAAP\\truffle\\contracts\\UserManagement.sol",
  "compiler": {
    "name": "solc",
    "version": "0.8.21+commit.d9974bed.Emscripten.clang"
  },
  "schemaVersion": "3.4.16",
  "updatedAt": "2025-08-21T18:25:04.523Z",
  "networkType": "ethereum",
  "devdoc": {
    "kind": "dev",
    "methods": {},
    "version": 1
  },
  "userdoc": {
    "kind": "user",
    "methods": {},
    "version": 1
  }
}